:100000000C942A000C94F1270C941E280C944B2875
:100010000C9447000C9447000C9447000C94FA1180
:100020000C9447000C9447000C9447000C94FE2E4F
:100030000C9447000C9447000C9447000C94470024
:100040000C9460210C9447000C9447000C944700DA
:100050000C94470011241FBECFE5D8E0DEBFCDBF12
:1000600010E0A0E6B0E0E6E5F2E602C005900D92F1
:10007000A63CB107D9F717E0A6ECB0E001C01D928D
:10008000A235B107E1F70E949D2F0C9429310C9401
:100090000000EF92FF920F931F937B018C0120E0F1
:1000A00030E040E05FE40E94490388238CF0C801FF
:1000B000B70120E030E040E05FE40E94C1010E940F
:1000C000A9039B01AC01205030404040504806C07D
:1000D000C801B7010E94A9039B01AC01B901CA0183
:1000E0001F910F91FF90EF900895A0E0B0E0EBE733
:1000F000F0E00C94E930DC012B01FA019C91923084
:1001000008F439C1EB018881823008F433C194309E
:1001100069F4843009F02FC111969C91119789815F
:10012000981709F428C1ABEBB0E025C1843009F47D
:1001300021C18230A9F4923009F01DC19A01AD01AC
:1001400088E0EA010990AE01E90109929E0181501F
:10015000C1F7E201898111969C918923818308C1AD
:10016000923009F407C112962D903C901397EB0141
:100170008A819B811496AD90BD90CD90DC901797AD
:10018000EC80FD800E811F819101281B390BB90184
:1001900037FF04C066277727621B730B6032710537
:1001A0000CF061C0121613066CF537014801062EDB
:1001B00004C096948794779467940A94D2F721E0C8
:1001C00030E040E050E004C0220F331F441F551FB1
:1001D0006A95D2F721503040404050402E213F21B7
:1001E00040235123211531054105510521F021E01E
:1001F00030E040E050E079018A01E628F72808293C
:1002000019293CC0232BD1F1260E371E350146019A
:10021000062E04C096948794779467940A94D2F734
:1002200021E030E040E050E004C0220F331F441FC3
:10023000551F6A95D2F721503040404050402A2146
:100240003B214C215D21211531054105510521F04E
:1002500021E030E040E050E059016A01A628B728CB
:10026000C828D9280BC0821593052CF01C01AA249C
:10027000BB24650103C0EE24FF24870111969C91E5
:10028000D20111968C91981709F445C0992339F041
:10029000A80197012A193B094C095D0906C0A6016E
:1002A00095012E193F09400B510B57FD08C01182D3
:1002B0003382228224833583468357831DC081E0A5
:1002C00081833382228288279927DC01821B930B4A
:1002D000A40BB50B84839583A683B7830DC0220F2F
:1002E000331F441F551F24833583468357838281E0
:1002F000938101979383828324813581468157813D
:10030000DA01C9010197A109B1098F5F9F4FAF4F72
:10031000BF4328F30BC0918333822282EA0CFB1C7B
:100320000C1D1D1DE482F5820683178383E0808304
:10033000248135814681578157FF1AC0C901AA27F8
:1003400097FDA095BA2F81709070A070B0705695EF
:10035000479537952795822B932BA42BB52B848318
:100360009583A683B7838281938101969383828349
:10037000DF0101C0D201CD01CDB7DEB7E2E10C94BF
:100380000531A0E2B0E0E7ECF1E00C94F5306983D0
:100390007A838B839C832D833E834F835887E9E048
:1003A000EE2EF12CEC0EFD1ECE010196B7010E943F
:1003B000D2048E010F5E1F4FCE010596B8010E9438
:1003C000D2048A8991E089278A8BC701B801AE01DE
:1003D000475E5F4F0E9475000E94FD03A096E6E015
:1003E0000C941131A0E2B0E0E8EFF1E00C94F530AC
:1003F00069837A838B839C832D833E834F835887C5
:10040000F9E0EF2EF12CEC0EFD1ECE010196B701A6
:100410000E94D2048E010F5E1F4FCE010596B801D7
:100420000E94D204C701B801AE01475E5F4F0E942F
:1004300075000E94FD03A096E6E00C941131A0E245
:10044000B0E0E5E2F2E00C94E93069837A838B83D3
:100450009C832D833E834F835887CE010196BE0136
:10046000675F7F4F0E94D204CE010596BE016F5E8A
:100470007F4F0E94D2049985923088F0898982301A
:10048000C8F0943019F4823051F404C0843029F457
:10049000923081F48BEB90E0C6C0923049F420E0BA
:1004A0009A858A89981321E02A87CE010996BBC0D4
:1004B000823049F420E09A858A89981321E02A8BBA
:1004C000CE014196B0C02D843E844F8458886D88FB
:1004D0007E888F88988CEE24FF248701AA24BB2471
:1004E000650140E050E060E070E0E0E0F0E0C10174
:1004F00081709070892BE9F0E60CF71C081D191D1E
:100500009A01AB012A0D3B1D4C1D5D1D80E090E062
:10051000A0E0B0E0E614F7040805190520F481E036
:1005200090E0A0E0B0E0BA01A901480F591F6A1F8E
:100530007B1FAA0CBB1CCC1CDD1C97FE08C081E0F5
:1005400090E0A0E0B0E0A82AB92ACA2ADB2A3196B6
:10055000E032F10549F0660C771C881C991C569412
:10056000479437942794C3CFFA85EA892B893C892D
:100570008B859C85280F391F2E5F3F4F17C0CA01FE
:1005800081709070892B61F016950795F794E79428
:1005900080E090E0A0E0B0E8E82AF92A0A2B1B2BC3
:1005A00076956795579547952F5F3F4F77FDE7CF36
:1005B0000CC0440F551F661F771F17FD4160EE0CDE
:1005C000FF1C001F111F21503040403090E05907A0
:1005D00090E0690790E4790760F32B8F3C8FDB0193
:1005E000CA018F779070A070B07080349105A1051A
:1005F000B10561F447FD0AC0E114F10401051105DC
:1006000029F0405C5F4F6F4F7F4F40781A8EFE1786
:1006100011F081E08A8F4D8F5E8F6F8F78A383E01A
:10062000898FCE0149960E94FD03A096E2E10C94C9
:100630000531A8E1B0E0EFE1F3E00C94F530698317
:100640007A838B839C832D833E834F83588789E0F5
:10065000E82EF12CEC0EFD1ECE010196B7010E9492
:10066000D2048E010F5E1F4FCE010596B8010E9485
:10067000D2048985823040F08989823028F0C70110
:10068000B8010E944A0501C08FEF6896E6E00C941D
:100690001131A8E1B0E0EFE4F3E00C94F5306983A8
:1006A0007A838B839C832D833E834F83588789E095
:1006B000E82EF12CEC0EFD1ECE010196B7010E9432
:1006C000D2048E010F5E1F4FCE010596B8010E9425
:1006D000D2048985823040F08989823028F0C701B0
:1006E000B8010E944A0501C08FEF6896E6E00C94BD
:1006F0001131A8E1B0E0EFE7F3E00C94F530698345
:100700007A838B839C832D833E834F83588789E034
:10071000E82EF12CEC0EFD1ECE010196B7010E94D1
:10072000D2048E010F5E1F4FCE010596B8010E94C4
:10073000D2048985823040F08989823028F0C7014F
:10074000B8010E944A0501C081E06896E6E00C9479
:100750001131ACE0B0E0EFEAF3E00C94F9306983DA
:100760007A838B839C83CE010196BE016B5F7F4FA2
:100770000E94D2048D81823061F1823050F1843048
:1007800021F48E81882351F12EC02F81388537FDC9
:1007900020C06E812F3131051CF06623F9F023C093
:1007A0008EE190E0821B930B29853A854B855C8511
:1007B00004C056954795379527958A95D2F76623B5
:1007C000B1F050954095309521953F4F4F4F5F4F79
:1007D0000EC020E030E040E050E009C02FEF3FEFD6
:1007E0004FEF5FE704C020E030E040E050E8B9019F
:1007F000CA012C96E2E00C941531DF92EF92FF9241
:100800000F931F93FC01E480F58006811781D1804E
:100810008081823048F480E090E0A0E1B0E0E82AF6
:10082000F92A0A2B1B2BA5C0843009F49FC0823003
:1008300021F4EE24FF24870105C0E114F104010531
:10084000110519F4E0E0F0E096C0628173819FEF3A
:10085000623879070CF05BC022E83FEF261B370BAC
:100860002A3131052CF020E030E040E050E02AC091
:10087000B801A701022E04C0769567955795479554
:100880000A94D2F781E090E0A0E0B0E004C0880FC5
:10089000991FAA1FBB1F2A95D2F70197A109B10979
:1008A0008E219F21A023B1230097A105B10521F03E
:1008B00081E090E0A0E0B0E09A01AB01282B392B59
:1008C0004A2B5B2BDA01C9018F779070A070B07052
:1008D00080349105A105B10539F427FF09C0205CDA
:1008E0003F4F4F4F5F4F04C0215C3F4F4F4F5F4F13
:1008F000E0E0F0E02030A0E03A07A0E04A07A0E402
:100900005A0710F0E1E0F0E079018A0127C0603871
:10091000710564F5FB01E158FF4FD801C7018F77DE
:100920009070A070B07080349105A105B10539F4C4
:10093000E7FE0DC080E490E0A0E0B0E004C08FE3EB
:1009400090E0A0E0B0E0E80EF91E0A1F1B1F17FFA1
:1009500005C016950795F794E794319687E01695AC
:100960000795F794E7948A95D1F705C0EE24FF2404
:100970008701EFEFF0E06E2F679566276795902F60
:100980009F77D794DD24D7948E2F8695492F462BB9
:10099000582F5D29B701CA011F910F91FF90EF9069
:1009A000DF900895FC01DB01408151812281622F9B
:1009B0006F7770E0221F2227221F9381892F880FD3
:1009C000822B282F30E0991F9927991F11969C930D
:1009D000119721153105A9F54115510561057105DD
:1009E00011F482E037C082E89FEF13969C938E93B8
:1009F00012979A01AB0167E0220F331F441F551F66
:100A00006A95D1F783E08C930DC0220F331F441FEA
:100A1000551F12968D919C911397019713969C9355
:100A20008E931297203080E0380780E0480780E4FA
:100A3000580758F314962D933D934D935C93179755
:100A400008952F3F310579F4411551056105710570
:100A500019F484E08C93089564FF03C081E08C93C3
:100A600012C01C9210C02F57304013963C932E9307
:100A7000129783E08C9387E0440F551F661F771F02
:100A80008A95D1F7706414964D935D936D937C9322
:100A9000179708951F93DC01FB019C91923008F495
:100AA00047C08081823008F443C0943051F41196DD
:100AB0001C91843099F58181682F70E0611B710968
:100AC0003FC0843021F0923031F48230B9F181811D
:100AD000882389F12DC011961C9111978230F1F075
:100AE00081811817D9F412962D913C911397828128
:100AF00093818217930794F028173907BCF0149656
:100B00008D919D910D90BC91A02D248135814681C0
:100B10005781281739074A075B0718F4112341F05A
:100B20000AC082179307A407B50740F4112319F0F0
:100B300061E070E005C06FEF7FEF02C060E070E041
:100B4000CB011F910895AF92BF92CF92DF92EF92A7
:100B5000FF920F93DF93CF930F92CDB7DEB78983C8
:100B60008AE062E040E00E9483129093C900809383
:100B7000C80087E296E020E630E0E8ECF0E0B9015A
:100B800045E550E09F010981EE24FF24CC24DD24BB
:100B9000AA24BB240E942C198AEE95E028E630E0B6
:100BA000E8ECF0E0B90145E550E09F010981EE2451
:100BB000FF24CC24DD24AA24BB240E942C190F90EE
:100BC000CF91DF910F91FF90EF90DF90CF90BF908A
:100BD000AF900895DF93CF9300D000D000D0CDB771
:100BE000DEB79E838D831C821B821A82198227C0E6
:100BF000ED81FE81808191819E012D5F3F4FB90182
:100C000040E050E020E00E940013813019F081E0C4
:100C10008A8312C08A81882351F40FB6F8940F9208
:100C20008091C7008F5F8093C7000F900FBE8B81AC
:100C30009C8101969C838B8389818F5F89838981C5
:100C40008330B4F288EC90E00E94E61ACFCFDF93B5
:100C5000CF93CDB7DEB727970FB6F894DEBF0FBEA0
:100C6000CDBF9F838E831B821A8219822FC0EE8193
:100C7000FF81808191819E012C5F3F4FB90140E04F
:100C800050E020E00E940E14813001F52C813D815E
:100C90008A819B812817390739F081E089838C810B
:100CA0009D819B838A830DC08981882351F40FB66F
:100CB000F8940F928091C6008F5F8093C6000F90CA
:100CC0000FBE8A819B8101969B838A83EE81FF817F
:100CD000808191810E946215882349F684EB90E01F
:100CE0000E94E61AF3CFDF93CF930F92CDB7DEB712
:100CF0008091C600882321F08091C700882311F4D9
:100D0000198202C081E089831092C6001092C70048
:100D100089810F90CF91DF910895DF93CF93CDB765
:100D2000DEB727970FB6F894DEBF0FBECDBF9D8309
:100D30008C836E834F838AE190E00E94A50C9A8396
:100D4000898389819A81009709F46FC08091CA00D4
:100D50009091CB00009741F489819A819093CB00C8
:100D60008093CA000E94F4088E81823010F081E0E6
:100D70008E83E981FA81118E108EE981FA818E814C
:100D8000868BE981FA818F81878BE981FA818C8159
:100D90009D819183808389819A8102960E941D0E94
:100DA00089819A810C960E941D0EE981FA818981C0
:100DB0009A8191878087E981FA8189819A81938BD1
:100DC000828B8E81282F30E082E090E0821B930B93
:100DD000E981FA8195878487E981FA8196898091F2
:100DE000CC00891728F4E981FA8186898093CC00A8
:100DF000E981FA818689282F30E0C901880F991F7F
:100E0000880F991F880F991F820F931FAC014D52B5
:100E10005F4F89819A819C012E5F3F4FCA01B901C2
:100E20000E942D0E81E08B8302C08FEF8B838B811C
:100E300027960FB6F894DEBF0FBECDBFCF91DF91DE
:100E40000895DF93CF9300D000D000D0CDB7DEB7A8
:100E50009C838B837E836D832091CD003091CE0067
:100E60008B819C81820F931F9A8389838091CA0012
:100E70009091CB0002960E94DD0EE091CA00F091A5
:100E8000CB0089819A81938382832091CD00309118
:100E9000CE0089819A818217930770F48091F900BE
:100EA0009091FA002091CA003091CB002E5F3F4F05
:100EB000B9010E94710E0DC08091F7009091F80069
:100EC0002091CA003091CB002E5F3F4FB9010E94A4
:100ED000710E8D819E81009761F08091CA00909182
:100EE000CB009C01245F3F4F8D819E81B9010E9400
:100EF000710E26960FB6F894DEBF0FBECDBFCF9110
:100F0000DF910895DF93CF9300D0CDB7DEB73AC01D
:100F1000F894E0910001F0910101868197819A8314
:100F2000898389819A810C960E94DD0E789489814B
:100F30009A8102960E94DD0EE981FA81968980915C
:100F4000CC00891728F4E981FA8186898093CC0046
:100F5000E981FA818689282F30E0C901880F991F1D
:100F6000880F991F880F991F820F931FAC014D5254
:100F70005F4F89819A819C012E5F3F4FCA01B90161
:100F80000E942D0E8091FB00882309F0C1CF0F90A5
:100F90000F90CF91DF910895DF93CF9300D000D0D1
:100FA000CDB7DEB70E94F41B2091CF003091D00066
:100FB000821B930B9093D2008093D10085C08091C7
:100FC000CD009091CE0001969093CE008093CD00FD
:100FD0008091D1009091D20001979093D20080939C
:100FE000D1008091CD009091CE00009709F064C0AF
:100FF0008091F7009091F8009A8389838091F9009D
:101000009091FA009093F8008093F70089819A817B
:101010009093FA008093F9004FC0E091F700F091AF
:10102000F8000580F681E02D868197819C838B8373
:10103000EB81FC81228133818091CD009091CE00A3
:101040008217930708F440C0F8948B819C81029624
:101050000E94DD0EEB81FC8184899589009729F03F
:101060008B819C810C960E94DD0E7894EB81FC8133
:1010700096898091CC00891728F4EB81FC818689C0
:101080008093CC00EB81FC818689282F30E0C90158
:10109000880F991F880F991F880F991F820F931F20
:1010A000AC014D525F4F8B819C819C012E5F3F4F65
:1010B000CA01B9010E942D0EE091F700F091F800ED
:1010C0008081882309F0A9CF8091D1009091D2002E
:1010D000009709F074CF8091CD009091CE0090934D
:1010E000D0008093CF000F900F900F900F90CF9172
:1010F000DF910895DF93CF9300D0CDB7DEB70E9484
:1011000082070E94CC070AC08091CC00882309F492
:1011100066C08091CC0081508093CC008091CC003F
:10112000282F30E0C901880F991F880F991F880F59
:10113000991F820F931FFC01ED52FF4F808188237E
:1011400019F38091CC00282F30E0C901880F991F36
:10115000880F991F880F991F820F931F8D529F4FE1
:101160009A838983E981FA810180F281E02D82816D
:101170009381E981FA8192838183E981FA812181D6
:10118000328189819A8103962817390759F4E981B8
:10119000FA810180F281E02D82819381E981FA81D7
:1011A00092838183E981FA810180F281E02D868139
:1011B00097819093CB008093CA00E091CA00F09190
:1011C000CB00408151818091CA009091CB00E09189
:1011D000CA00F091CB002789622FFA0109950F9080
:1011E0000F90CF91DF910895DF93CF930F92CDB7FA
:1011F000DEB7198213C08981282F30E0C901880F1A
:10120000991F880F991F880F991F820F931F8D5266
:101210009F4F0E94F30D89818F5F8983898182307E
:1012200050F385EE90E00E94F30D8EEE90E00E9468
:10123000F30D8BEF90E00E94F30D85EE90E090931C
:10124000F8008093F7008EEE90E09093FA00809380
:10125000F9000F90CF91DF910895DF93CF9300D0E5
:1012600000D00F92CDB7DEB79D838C83EC81FD81DA
:101270000580F681E02D868197819B838A838A8110
:101280009B810C960E94DD0E8A819B819C01245FCC
:101290003F4F8BEF90E0B9010E942D0EEA81FB8158
:1012A0009689E091CA00F091CB008689981718F0D2
:1012B00081E0898301C0198289810F900F900F907E
:1012C0000F900F90CF91DF910895DF93CF9300D0CF
:1012D000CDB7DEB78BE090E00E94A50C9A8389839E
:1012E00089819A81009749F0E981FA8111821082FF
:1012F00089819A8102960E94F30D89819A810F90CB
:101300000F90CF91DF910895DF93CF93CDB7DEB7E4
:1013100060970FB6F894DEBF0FBECDBF9A8789875E
:101320007C876B875E874D87388B2F8789859A8569
:101330009C838B8319820E945E1BEB81FC818081E0
:10134000918198878F8389859A852B853C85B90102
:101350000E94560B2F8138858B859C85282B392B35
:101360008D859E85282339238D859E8528173907ED
:10137000C9F42F8138858B859C85822B932B9E8386
:101380008D83EB81FC81208131818D859E858095C7
:10139000909582239323EB81FC8191838083188A2B
:1013A0001F861CC08F859889009791F08B819C8146
:1013B000BC016E5F7F4F8D859E859C0135604F859A
:1013C0005889CB01B9010E94AE1D1E821D8206C044
:1013D000EB81FC81808191819E838D830E946A1BB9
:1013E0008A838F859889009709F43AC08A81882377
:1013F00011F40E94E8100E9414219E838D838D8138
:101400009E8180709270009731F50FB6F8940F921C
:10141000EB81FC81808191819E838D832D813E8132
:101420008D859E85282339238D859E85281739072C
:1014300071F4EB81FC81208131818D859E858095C1
:10144000909582239323EB81FC81918380830F907D
:101450000FBE81E089838D819E8190709E838D83F4
:101460008D819E8160960FB6F894DEBF0FBECDBF12
:10147000CF91DF9108950F931F93DF93CF93CDB753
:10148000DEB763970FB6F894DEBF0FBECDBF9D8762
:101490008C877F876E87488B298B1B8B0A8B8C856B
:1014A0009D859B878A871F821E821B820E945E1BEE
:1014B000EA85FB85808191819A83898389819A81DC
:1014C0002E853F85B90149890E94730C8D838D81DA
:1014D0008823C1F089819A81998788871B8A1A8A13
:1014E00088898823D9F1EA85FB85208131818E8521
:1014F0009F858095909582239323EA85FB85918330
:1015000080832CC08A899B89009729F489819A81DC
:101510009987888723C08889882329F08E819F81B5
:1015200091609F838E838989882329F08E819F8192
:1015300094609F838E838A859B85BC016E5F7F4FFD
:101540002E853F858E819F81282B392B4A895B8987
:10155000CB01B9010E94AE1D198618860E946A1B34
:101560008C838A899B89009709F43BC08C818823EE
:1015700011F40E94E8100E941421998788878885B9
:10158000998580709270009739F50FB6F8940F9294
:10159000EA85FB85808191819987888788859985EF
:1015A0002E853F85B90149890E94730C882389F0F3
:1015B0008889882371F0EA85FB85208131818E85B9
:1015C0009F858095909582239323EA85FB8591835F
:1015D00080830F900FBE1B828885998590709987B4
:1015E00088878885998563960FB6F894DEBF0FBE0D
:1015F000CDBFCF91DF911F910F910895DF93CF93CE
:10160000CDB7DEB728970FB6F894DEBF0FBECDBFBB
:101610009E838D8378876F838D819E819C838B834E
:101620000FB6F8940F92EB81FC81808191819A83AF
:101630008983EB81FC81208131818F819885809520
:10164000909582239323EB81FC81918380830F907B
:101650000FBE89819A8128960FB6F894DEBF0FBE1F
:10166000CDBFCF91DF910895DF93CF93CDB7DEB794
:1016700027970FB6F894DEBF0FBECDBF9F838E8332
:101680008E819F819C838B831D82EB81FC81808175
:1016900091819A83898389819A8127960FB6F894DC
:1016A000DEBF0FBECDBFCF91DF910895DF93CF9303
:1016B000CDB7DEB765970FB6F894DEBF0FBECDBFCE
:1016C0009B8B8A8B7D8B6C8B198618868A899B896C
:1016D0009B838A8319828A819B8102969B878A8752
:1016E0008A859B8503969D878C870E945E1BEA8571
:1016F000FB8585819681998B888BEA81FB8120818E
:1017000031818C899D89822B932BEA81FB81918386
:10171000808359C0E889F989828193819F878E8768
:10172000E889F989808191819F838E8319828E81D6
:101730009F8180709D838C838E819F8190709F8319
:101740008E838C819D8180709470009769F4EA810A
:10175000FB81208131818E819F8182239323009799
:1017600091F081E089830FC0EA81FB812081318182
:101770008E819F81282339238E819F8128173907E5
:1017800011F481E0898389818823C9F08C819D814E
:1017900080709170009741F0888599852E813F81F6
:1017A000822B932B99878887EA81FB8180819181A5
:1017B0009C01326088899989B9010E945C1E8E85DE
:1017C0009F85998B888B288939898C859D852817D9
:1017D000390709F09FCFEA81FB812081318188851B
:1017E00099858095909582239323EA81FB8191834B
:1017F00080830E946A1BEA81FB81808191816596CA
:101800000FB6F894DEBF0FBECDBFCF91DF91089524
:10181000DF93CF9300D000D000D0CDB7DEB79E834A
:101820008D838D819E819C838B838B819C8102968D
:101830009A8389830E945E1B08C0E981FA818581B1
:10184000968160E072E00E945C1EE981FA818081ED
:10185000882399F78B819C810E94FB0C0E946A1B54
:1018600026960FB6F894DEBF0FBECDBFCF91DF91A5
:101870000895DF93CF9300D000D000D0CDB7DEB76E
:101880009A8389834B835C836D837E832B813C8128
:1018900089819A81B9010E94560B26960FB6F89459
:1018A000DEBF0FBECDBFCF91DF910895DF93CF9301
:1018B00000D000D000D0CDB7DEB79A8389834B83A8
:1018C0005C836D837E832B813C8189819A81B90100
:1018D0000E94FE0A26960FB6F894DEBF0FBECDBF5B
:1018E000CF91DF910895DF93CF9300D000D000D047
:1018F000CDB7DEB79B838A837D836C834E83198249
:101900008E81882359F48A819B812C813D81822399
:101910009323009781F081E089830DC02A813B8168
:101920008C819D81282339238C819D81281739073B
:1019300011F481E08983898126960FB6F894DEBF81
:101940000FBECDBFCF91DF910895DF93CF9300D02D
:1019500000D0CDB7DEB79C838B831A8219820E9498
:101960005E1B8091060190910701009731F489E098
:1019700091E090930701809306018091040190917A
:1019800005012B813C81820F931F25E08B3D92073F
:1019900038F520910401309105018B819C81280F3D
:1019A000391F809104019091050182179307C0F4BB
:1019B0002091060130910701809104019091050169
:1019C000820F931F9A83898320910401309105012E
:1019D0008B819C81820F931F90930501809304015A
:1019E0000E946A1B89819A810F900F900F900F902F
:1019F000CF91DF910895DF93CF9300D0CDB7DEB7BD
:101A00009A8389830F900F90CF91DF910895DF9390
:101A1000CF93CDB7DEB71092050110920401CF919C
:101A2000DF910895DF93CF93CDB7DEB72091040106
:101A3000309105018BED95E0821B930BCF91DF91E7
:101A40000895AF92BF92CF92DF92EF92FF920F93E1
:101A5000DF93CF9300D00F92CDB7DEB78B831A827E
:101A600019821BC089819A81FC01EC51F94F8FE5E5
:101A70009DE020E730E0B90145E550E09F010B8192
:101A8000EE24FF24CC24DD24AA24BB240E942C199C
:101A900089819A8101969A83898389819A8118160E
:101AA000190604F70F900F900F90CF91DF910F91CF
:101AB000FF90EF90DF90CF90BF90AF900895DF93AD
:101AC000CF93CDB7DEB72A970FB6F894DEBF0FBE1F
:101AD000CDBF9A8789871C821B8289859A859A83C4
:101AE00089838BE790E0A0E0B0E08D839E83AF8395
:101AF000B8878D819E81AF81B885895B9B46AC4F4D
:101B0000BF4F8D839E83AF83B8878D819E81AF81C8
:101B1000B8852DEF3FEF4FEF5FEFBC01CD010E9485
:101B20008130DC01CB018D839E83AF83B8878D81AB
:101B30009E81AF81B88527E030E040E050E0BC01F5
:101B4000CD010E94CE30DA01C9018D839E83AF831F
:101B5000B8878D819E81AF81B8858B3127E7920749
:101B60002EEFA2072FEFB20721F081E090E09C83D7
:101B70008B838B819C81009709F0B3CF0FB6F894CB
:101B80000F92E981FA8181E080830F900FBEA9CF87
:101B9000DF93CF9300D00F92CDB7DEB781E08B8378
:101BA0001A82198214C089819A81FC01EC51F94F83
:101BB0008081882309F41B8289819A81FC01EC5180
:101BC000F94F108289819A8101969A83898389814C
:101BD0009A81181619063CF78B810F900F900F9081
:101BE000CF91DF910895DF93CF9300D0CDB7DEB7CB
:101BF0009A83898389819A810396E981FA81928304
:101C00008183E981FA818FEF9FEF948383838981B8
:101C10009A810396E981FA819683858389819A81E5
:101C20000396E981FA8190878783E981FA8110829E
:101C30000F900F90CF91DF910895DF93CF9300D055
:101C4000CDB7DEB79A838983E981FA811186108640
:101C50000F900F90CF91DF910895DF93CF9300D035
:101C600000D000D0CDB7DEB79C838B837E836D839D
:101C7000EB81FC81818192819A838983ED81FE8150
:101C800089819A8193838283E981FA818481958114
:101C9000ED81FE8195838483E981FA810480F58159
:101CA000E02D8D819E8193838283E981FA818D81EC
:101CB0009E8195838483ED81FE818B819C819187B8
:101CC0008087EB81FC8180818F5FEB81FC81808349
:101CD00026960FB6F894DEBF0FBECDBFCF91DF9131
:101CE0000895DF93CF93CDB7DEB728970FB6F8945A
:101CF000DEBF0FBECDBF9E838D8378876F83EF815C
:101D0000F885808191819A83898389819A812FEFD7
:101D10008F3F920739F4ED81FE81878190859C8306
:101D20008B8318C08D819E8103969C838B8306C014
:101D3000EB81FC81828193819C838B83EB81FC818D
:101D40000280F381E02D2081318189819A8182177F
:101D5000930770F7EB81FC8182819381EF81F88595
:101D600093838283EF81F8850280F381E02D8F8158
:101D7000988595838483EF81F8858B819C819583F9
:101D80008483EB81FC818F81988593838283EF81AB
:101D9000F8858D819E8191878087ED81FE8180818C
:101DA0008F5FED81FE81808328960FB6F894DEBFA9
:101DB0000FBECDBFCF91DF910895DF93CF9300D0B9
:101DC00000D0CDB7DEB79C838B83EB81FC8180850F
:101DD00091859A838983EB81FC81A281B381EB8118
:101DE000FC818481958115969C938E931497EB8149
:101DF000FC81A481B581EB81FC8182819381139662
:101E00009C938E931297E981FA81218132818B8193
:101E10009C812817390741F4EB81FC8184819581ED
:101E2000E981FA8192838183EB81FC81118610869E
:101E3000E981FA8180818150E981FA818083E98199
:101E4000FA8180810F900F900F900F90CF91DF91CA
:101E50000895DF93CF93CDB7DEB728970FB6F894E8
:101E6000DEBF0FBECDBF9C838B837E836D8358877F
:101E70004F83EB81FC8181E180838B819C81019781
:101E80009C838B83EB81FC8182E280838B819C81AC
:101E900001979C838B83EB81FC8183E380838B811F
:101EA0009C8101979C838B838D819E819A838983FA
:101EB0008981EB81FC8180838B819C8101979C834C
:101EC0008B8389819A81892F99279A838983898134
:101ED000EB81FC8180838B819C8101979C838B8328
:101EE000EB81FC8110828B819C8101979C838B8389
:101EF000EB81FC8180E880838B819C8101979C83AE
:101F00008B83EB81FC8110828B819C8101979C8368
:101F10008B83EB81FC8182E080838B819C810197A4
:101F20009C838B83EB81FC8183E080838B819C810C
:101F300001979C838B83EB81FC8184E080838B8180
:101F40009C8101979C838B83EB81FC8185E080835E
:101F50008B819C8101979C838B83EB81FC8186E044
:101F600080838B819C8101979C838B83EB81FC8197
:101F700087E080838B819C8101979C838B83EB819D
:101F8000FC8188E080838B819C8101979C838B837B
:101F9000EB81FC8189E080838B819C8101979C830C
:101FA0008B83EB81FC8180E180838B819C81019715
:101FB0009C838B83EB81FC8181E180838B819C817D
:101FC00001979C838B83EB81FC8182E180838B81F1
:101FD0009C8101979C838B83EB81FC8183E18083CF
:101FE0008B819C8101979C838B83EB81FC8184E1B5
:101FF00080838B819C8101979C838B83EB81FC8107
:1020000085E180838B819C8101979C838B83EB810D
:10201000FC8186E180838B819C8101979C838B83EB
:10202000EB81FC8187E180838B819C8101979C837C
:102030008B83EB81FC8188E180838B819C8101977C
:102040009C838B83EB81FC8189E180838B819C81E4
:1020500001979C838B83EB81FC8180E280838B8161
:102060009C8101979C838B83EB81FC8181E280833F
:102070008B819C8101979C838B83EB81FC8182E225
:1020800080838B819C8101979C838B83EB81FC8176
:1020900083E280838B819C8101979C838B838F81DA
:1020A00098859A8389838981EB81FC8180838B81E8
:1020B0009C8101979C838B8389819A81892F9927A1
:1020C0009A8389838981EB81FC8180838B819C81C8
:1020D00001979C838B83EB81FC8186E280838B81DB
:1020E0009C8101979C838B83EB81FC8187E28083B9
:1020F0008B819C8101979C838B83EB81FC8188E29F
:1021000080838B819C8101979C838B83EB81FC81F5
:1021100089E280838B819C8101979C838B83EB81F7
:10212000FC8180E380838B819C8101979C838B83DE
:10213000EB81FC8181E380838B819C8101979C836F
:102140008B838B819C8128960FB6F894DEBF0FBEDF
:10215000CDBFCF91DF910895DF93CF93CDB7DEB799
:102160000E949E11A091E506B091E606CD91CDBFEB
:10217000DD91DEBFFF91EF91DF91CF91BF91AF91E4
:102180009F918F917F916F915F914F913F912F918F
:102190001F910F91FF90EF90DF90CF90BF90AF9085
:1021A0009F908F907F906F905F904F903F902F9077
:1021B0001F900F900FBE0F90089581E0CF91DF9197
:1021C0000895DF93CF93CDB7DEB7CF91DF91089518
:1021D0000F920FB6F8940F921F9211242F923F92F4
:1021E0004F925F926F927F928F929F92AF92BF9227
:1021F000CF92DF92EF92FF920F931F932F933F9313
:102200004F935F936F937F938F939F93AF93BF93FE
:10221000CF93DF93EF93FF93A091E506B091E6068D
:102220000DB60D920EB60D920E94101DA091E506FE
:10223000B091E606CD91CDBFDD91DEBFFF91EF916C
:10224000DF91CF91BF91AF919F918F917F916F91CE
:102250005F914F913F912F911F910F91FF90EF90C0
:10226000DF90CF90BF90AF909F908F907F906F90B6
:102270005F904F903F902F901F900F900FBE0F9048
:1022800008950F920FB6F8940F921F9211242F9277
:102290003F924F925F926F927F928F929F92AF92F6
:1022A000BF92CF92DF92EF92FF920F931F932F93E3
:1022B0003F934F935F936F937F938F939F93AF93CE
:1022C000BF93CF93DF93EF93FF93A091E506B09177
:1022D000E6060DB60D920EB60D920E94291C8823BB
:1022E00011F00E94101DA091E506B091E606CD9177
:1022F000CDBFDD91DEBFFF91EF91DF91CF91BF9117
:10230000AF919F918F917F916F915F914F913F918D
:102310002F911F910F91FF90EF90DF90CF90BF9082
:10232000AF909F908F907F906F905F904F903F9075
:102330002F901F900F900FBE0F900895DF93CF93B3
:1023400000D000D000D0CDB7DEB780E49FE1A0E0A0
:10235000B0E08B839C83AD83BE838B819C81AD81F8
:10236000BE81689415F8B695A795979587951694AC
:10237000D1F78B839C83AD83BE838B819C81AD81A0
:10238000BE810197A109B1098B839C83AD83BE8374
:102390008B8189838B819C81AD81BE81892F9A2F0E
:1023A000AB2FBB278B839C83AD83BE838B818A83BA
:1023B000EBE4F0E08A818083EAE4F0E089818083C5
:1023C0008BE08983EEE4F0E089818083E9E5F0E049
:1023D00080818983898180618983E9E5F0E0898151
:1023E000808326960FB6F894DEBF0FBECDBFCF9187
:1023F000DF9108950E9441111895DF93CF9300D08B
:1024000000D00F92CDB7DEB79C838B836D838B8119
:102410009C819A8389830FB6F8940F92E981FA819F
:1024200040815181E981FA81838D282F30E0E98153
:10243000FA81848D882F90E0BC01269FC001279FE0
:10244000900D369F900D1124840F951FE981FA811C
:1024500093838283E981FA81128EE981FA818081F6
:102460009181E981FA8195838483E981FA814081B0
:102470005181E981FA81838D882F90E09C01215060
:102480003040E981FA81848D882F90E0BC01269F3D
:10249000C001279F900D369F900D1124840F951F2A
:1024A000E981FA8197838683E981FA818FEF858FAD
:1024B000E981FA818FEF868F8D81882379F4E98114
:1024C000FA8180858823A1F089819A8108960E94EB
:1024D000F11D813069F40E94E8100AC089819A8157
:1024E00008960E94F30D89819A8141960E94F30D0E
:1024F0000F900FBE81E00F900F900F900F900F90F4
:10250000CF91DF910895DF93CF93CDB7DEB72997B1
:102510000FB6F894DEBF0FBECDBF8F8368874987A3
:102520001A8219828F81882309F43FC08FE190E0DD
:102530000E94A50C9E838D838D819E810097A9F1B9
:102540008F81282F30E08885882F90E0AC01249F70
:10255000C001259F900D349F900D112401969C83FE
:102560008B838B819C810E94A50CED81FE819183E0
:102570008083ED81FE8180819181009791F0ED81D2
:10258000FE818F81838FED81FE818885848F8D818F
:102590009E8161E00E94FD118D819E819A838983D5
:1025A00004C08D819E810E94FB0C89819A812996AD
:1025B0000FB6F894DEBF0FBECDBFCF91DF91089567
:1025C000DF93CF9300D000D0CDB7DEB78B836C8381
:1025D0008B8160E042E00E9483129A838983898123
:1025E0009A81009721F0E981FA818C81828F89811B
:1025F0009A810F900F900F900F90CF91DF910895D7
:10260000DF93CF93CDB7DEB72F970FB6F894DEBF29
:102610000FBECDBF998788877B876A875D874C8788
:102620002E871C82888599859A8389830FB6F894B2
:102630000F92E981FA81928DE981FA81838D981751
:1026400018F08E85823011F589819A812A853B8523
:10265000B9014E850E94D5158B83E981FA81818964
:10266000882351F089819A8141960E94F11D813021
:1026700041F40E94E81005C08B81882311F00E946C
:10268000E8100F900FBE81E08F875CC08C859D8520
:10269000009721F40F900FBE1F8654C08C818823B1
:1026A00031F4CE0105960E94C11E81E08C830F900B
:1026B0000FBE0E945E1B0FB6F8940F92E981FA815B
:1026C000858D8F3F19F4E981FA81158EE981FA81B0
:1026D000868D8F3F19F4E981FA81168E0F900FBE17
:1026E000CE0105969E01245F3F4FB9010E94DA1E7C
:1026F000882309F589819A810E944C178823A1F0CB
:1027000089819A8108962C853D85B9010E94791DA1
:1027100089819A810E94C3160E946A1B882309F04E
:1027200085CF0E94E81082CF89819A810E94C316CA
:102730000E946A1B7BCF89819A810E94C3160E94E6
:102740006A1B1F868F852F960FB6F894DEBF0FBECB
:10275000CDBFCF91DF910895DF93CF93CDB7DEB793
:102760002B970FB6F894DEBF0FBECDBF9E838D832F
:1027700078876F835A8749872B878D819E819A83BB
:1027800089831B82E981FA81928DE981FA81838DA7
:10279000981718F08B858230B1F589819A812F8145
:1027A0003885B9014B850E94D515882341F089856C
:1027B0009A85009721F0E985FA8581E08083E98197
:1027C000FA81868D8F3FA9F4E981FA818189882376
:1027D000B9F089819A8141960E94F11D882381F088
:1027E00089859A85009761F0E985FA8581E0808383
:1027F00007C0E981FA81868D8F5FE981FA81868F32
:1028000081E08C8301C01C828C812B960FB6F894DA
:10281000DEBF0FBECDBFCF91DF910895DF93CF9381
:10282000CDB7DEB760970FB6F894DEBF0FBECDBF51
:102830009A8789877C876B875E874D872F871D8264
:1028400089859A859A8389830FB6F8940F92E981D6
:10285000FA81828D882309F43FC0E981FA8186815B
:1028600097819C838B8389819A812B853C85B901D3
:102870000E947C168F858823B1F4E981FA81828DCC
:102880008150E981FA81828FE981FA8180858823EC
:10289000F1F089819A8108960E94F11D8130B9F486
:1028A0000E94E81014C0E981FA818B819C81978392
:1028B0008683E981FA818189882349F089819A8117
:1028C00041960E94F11D882311F00E94E8100F909C
:1028D0000FBE81E0888B5CC08D859E85009721F4BA
:1028E0000F900FBE188A54C08D81882331F4CE0119
:1028F00006960E94C11E81E08D830F900FBE0E943C
:102900005E1B0FB6F8940F92E981FA81858D8F3F97
:1029100019F4E981FA81158EE981FA81868D8F3F5C
:1029200019F4E981FA81168E0F900FBECE0106963A
:102930009E01235F3F4FB9010E94DA1E882309F5EB
:1029400089819A810E9417178823A1F089819A8131
:1029500041962D853E85B9010E94791D89819A8114
:102960000E94C3160E946A1B882309F06DCF0E9443
:10297000E8106ACF89819A810E94C3160E946A1B5F
:1029800063CF89819A810E94C3160E946A1B188AAC
:10299000888960960FB6F894DEBF0FBECDBFCF9189
:1029A000DF910895DF93CF93CDB7DEB72A970FB6A7
:1029B000F894DEBF0FBECDBF9E838D8378876F8373
:1029C0005A8749878D819E819A8389831B82E981F9
:1029D000FA81828D882391F189819A812F813885AE
:1029E000B9010E947C16E981FA81828D8150E981CA
:1029F000FA81828FE981FA81858D8F3FA9F4E9817F
:102A0000FA8180858823B9F089819A8108960E948D
:102A1000F11D882381F089859A85009761F0E98509
:102A2000FA8581E0808307C0E981FA81858D8F5F17
:102A3000E981FA81858F81E08C8301C01C828C81C1
:102A40002A960FB6F894DEBF0FBECDBFCF91DF91AF
:102A50000895DF93CF93CDB7DEB72A970FB6F894DA
:102A6000DEBF0FBECDBF98878F837A8769878F813E
:102A700098859A8389831D82E981FA81828D8823D2
:102A8000B1F0E981FA81868197819C838B8389816A
:102A90009A8129853A85B9010E947C16E981FA81DB
:102AA0008B819C819783868381E08E8301C01E8207
:102AB0008E812A960FB6F894DEBF0FBECDBFCF91A0
:102AC000DF910895DF93CF9300D00F92CDB7DEB79B
:102AD0009B838A830FB6F8940F92EA81FB81828DE3
:102AE00089830F900FBE89810F900F900F90CF9127
:102AF000DF910895DF93CF9300D000D00F92CDB730
:102B0000DEB79D838C838C819D819A8389830FB6E8
:102B1000F8940F92E981FA81938DE981FA81828D8F
:102B2000292F281B822F8B830F900FBE8B810F9034
:102B30000F900F900F900F90CF91DF910895DF933A
:102B4000CF9300D00F92CDB7DEB79B838A83EA8103
:102B5000FB81828D898389810F900F900F90CF9197
:102B6000DF910895DF93CF9300D000D0CDB7DEB7CB
:102B70009C838B838B819C819A838983E981FA81F1
:102B800080819181009731F0E981FA818081918182
:102B90000E94FB0C89819A810E94FB0C0F900F9080
:102BA0000F900F90CF91DF910895DF93CF9300D0D6
:102BB00000D000D0CDB7DEB79B838A837D836C8342
:102BC0004E831982EA81FB81848D882309F483C0B6
:102BD0008E81882399F5EA81FB8164817581EA8180
:102BE000FB81848D482F50E02C813D81CB01B901C0
:102BF0000E942031EA81FB8124813581EA81FB81B9
:102C0000848D882F90E0820F931FEA81FB8195834A
:102C10008483EA81FB8124813581EA81FB81828181
:102C200093812817390708F456C0EA81FB81808117
:102C30009181EA81FB81958384834DC0EA81FB8188
:102C400066817781EA81FB81848D482F50E02C8159
:102C50003D81CB01B9010E942031EA81FB812681AF
:102C60003781EA81FB81848D882F90E09095819552
:102C70009F4F820F931FEA81FB8197838683EA81AE
:102C8000FB8126813781EA81FB8180819181281730
:102C9000390790F4EA81FB8122813381EA81FB814B
:102CA000848D882F90E0909581959F4F820F931F80
:102CB000EA81FB81978386838E81823061F4EA8189
:102CC000FB81828D882339F0EA81FB81828D8150DE
:102CD000EA81FB81828FEA81FB81828D8F5FEA81AD
:102CE000FB81828F898126960FB6F894DEBF0FBED6
:102CF000CDBFCF91DF910895DF93CF9300D000D067
:102D0000CDB7DEB79A8389837C836B83E981FA81AF
:102D1000848D882389F1E981FA8126813781E981CF
:102D2000FA81848D882F90E0820F931FE981FA81C8
:102D300097838683E981FA8126813781E981FA8147
:102D4000828193812817390740F0E981FA818081D7
:102D50009181E981FA8197838683E981FA814681AD
:102D60005781E981FA81848D282F30E08B819C8105
:102D7000BA01A9010E9420310F900F900F900F907F
:102D8000CF91DF910895DF93CF9300D0CDB7DEB719
:102D90009A8389830FB6F8940F9215C0E981FA815E
:102DA00081898823A9F089819A8141960E94F11D29
:102DB000882311F00E943D1FE981FA81868D8150A0
:102DC000E981FA81868FE981FA81868D181634F3BC
:102DD000E981FA818FEF868F0F900FBE0FB6F894BE
:102DE0000F9215C0E981FA8180858823A9F0898135
:102DF0009A8108960E94F11D882311F00E943D1FC0
:102E0000E981FA81858D8150E981FA81858FE98197
:102E1000FA81858D181634F3E981FA818FEF858F59
:102E20000F900FBE0F900F90CF91DF910895DF9319
:102E3000CF9300D00F92CDB7DEB79B838A830FB6B6
:102E4000F8940F92EA81FB81828D882319F481E046
:102E5000898301C019820F900FBE89810F900F9056
:102E60000F90CF91DF910895DF93CF9300D00F9211
:102E7000CDB7DEB79B838A83EA81FB81828D88236D
:102E800019F481E0898301C0198289810F900F9024
:102E90000F90CF91DF910895DF93CF9300D00F92E1
:102EA000CDB7DEB79B838A830FB6F8940F92EA8181
:102EB000FB81928DEA81FB81838D981719F481E063
:102EC000898301C019820F900FBE89810F900F90E6
:102ED0000F90CF91DF910895DF93CF9300D00F92A1
:102EE000CDB7DEB79B838A83EA81FB81928DEA812D
:102EF000FB81838D981719F481E0898301C01982C1
:102F000089810F900F900F90CF91DF910895DF93FB
:102F1000CF93CDB7DEB72A970FB6F894DEBF0FBEBA
:102F2000CDBF9D838C837F836E83598748878C8137
:102F30009D819A838983F89489819A810E944C1794
:102F40008823A9F088859985009771F089819A81F5
:102F50009C01285F3F4F88859985B9010E94210710
:102F600078948CEF8A872AC078941A8627C0789440
:102F7000F894E981FA81928DE981FA81838D98171D
:102F8000C8F489819A812E813F81B90140E00E9475
:102F9000D51581E08B83E981FA818189882359F0F5
:102FA00089819A8141960E942D09882321F08BEF17
:102FB0008B8301C01B8278948B818A878A852A96AD
:102FC0000FB6F894DEBF0FBECDBFCF91DF9108954D
:102FD000DF93CF93CDB7DEB72A970FB6F894DEBF55
:102FE0000FBECDBF9D838C837F836E8359874887B7
:102FF0008C819D819A838983F894E981FA81828DFD
:103000008823A9F488859985009771F089819A8130
:103010009C012F5E3F4F88859985B9010E94210749
:1030200078948CEF8A8758C078941A8655C0789423
:10303000F894E981FA81828D882309F449C0E981F5
:10304000FA8126813781E981FA81848D882F90E089
:10305000820F931FE981FA8197838683E981FA8140
:1030600026813781E981FA81828193812817390786
:1030700040F0E981FA8180819181E981FA81978329
:103080008683E981FA81828D8150E981FA81828F7C
:10309000E981FA8146815781E981FA81848D282F5F
:1030A00030E08E819F81BA01A9010E94203181E028
:1030B0008B83E981FA818085882359F089819A81FF
:1030C00008960E942D09882321F08BEF8B8301C085
:1030D0001B8278948B818A878A852A960FB6F8940A
:1030E000DEBF0FBECDBFCF91DF910895DF93CF93A9
:1030F000CDB7DEB728970FB6F894DEBF0FBECDBFB1
:103100009C838B837E836D834F838B819C819A8389
:103110008983E981FA81928DE981FA81838D9817FB
:10312000D0F489819A812D813E81B90140E00E94CD
:10313000D5158F81882379F4E981FA8181898823E3
:1031400051F089819A8141960E942D09882319F0B6
:1031500081E0888702C08F818887888528960FB68E
:10316000F894DEBF0FBECDBFCF91DF910895DF93FE
:10317000CF93CDB7DEB729970FB6F894DEBF0FBE59
:10318000CDBF9D838C837F836E83598748878C81D5
:103190009D819A838983E981FA81828D882309F44C
:1031A00050C0E981FA8126813781E981FA81848DD5
:1031B000882F90E0820F931FE981FA81978386839D
:1031C000E981FA8126813781E981FA8182819381BF
:1031D0002817390740F0E981FA8180819181E981DE
:1031E000FA8197838683E981FA81828D8150E98112
:1031F000FA81828FE981FA8146815781E981FA81DA
:10320000848D282F30E08E819F81BA01A9010E9410
:103210002031E885F9858081882381F4E981FA816C
:103220008085882359F089819A8108960E942D090A
:10323000882321F0E885F98581E0808381E08B8314
:1032400001C01B828B8129960FB6F894DEBF0FBE9A
:10325000CDBFCF91DF910895AF92BF92CF92DF9211
:10326000EF92FF920F931F93DF93CF93CDB7DEB70B
:1032700064970FB6F894DEBF0FBECDBF9F838E83D9
:10328000798768875B874A873D872C870E87F88A0E
:10329000EF86DA8AC98ABC8AAB8A8A859B852989A6
:1032A0003A89B9010E948F209C838B838B819C81FA
:1032B000009709F48DC0EB81FC812789308D8A85C8
:1032C0009B850197820F931F9A8389838B819C81B1
:1032D00028853985EB89FC89AA85BB85B9014E858E
:1032E0009F018D010E94571F89819A812E813F8104
:1032F0004C855D85B9010E94290FEB81FC8191838A
:1033000080838F859889009731F0EF85F8898B81CC
:103310009C81918380830FB6F8940F928091E80688
:103320008F5F8093E8068091E5069091E60600970E
:1033300069F48B819C819093E6068093E5068091E9
:10334000E8068130A9F40E94CA1F12C08091EC06E1
:10335000882371F4E091E506F091E60696898E8562
:10336000891730F08B819C819093E6068093E50667
:103370008091F0068F5F8093F006EB81FC81968947
:103380008091EB06891728F4EB81FC818689809374
:10339000EB06EB81FC818689282F30E0C901880F7C
:1033A000991F880F991F880F991F820F931FAC01D7
:1033B0004E50594F8B819C819C012E5F3F4FCA011B
:1033C000B9010E942D0E81E08D830F900FBE02C0C7
:1033D0008FEF8D838D81813071F48091EC0688238D
:1033E00051F0E091E506F091E60696898E859817F2
:1033F00010F40E94E8108D8164960FB6F894DEBF39
:103400000FBECDBFCF91DF911F910F91FF90EF9035
:10341000DF90CF90BF90AF900895DF93CF9300D00F
:1034200000D000D0CDB7DEB79C838B830FB6F89465
:103430000F928B819C81009739F48091E5069091E1
:10344000E6069E838D8304C08B819C819E838D8341
:103450008D819E819A83898389819A8102960E94B7
:10346000DD0EE981FA8184899589009729F08981A7
:103470009A810C960E94DD0E89819A819C012E5FB3
:103480003F4F85E397E0B9010E942D0E8091E7063A
:103490008F5F8093E7068091F0068F5F8093F00640
:1034A0000F900FBE8091EC06882399F02091E506DD
:1034B0003091E60689819A818217930719F40E9458
:1034C000E81007C00FB6F8940F920E94E9200F9001
:1034D0000FBE26960FB6F894DEBF0FBECDBFCF91BC
:1034E000DF910895DF93CF93CDB7DEB72A970FB65C
:1034F000F894DEBF0FBECDBF98878F837A87698728
:103500001B820E945E1B8091E9069091EA069A83D5
:103510008983EF81F8852081318189859A85820FA1
:10352000931F9E838D83EF81F8852081318189816E
:103530009A818217930798F4EF81F8852081318171
:103540008D819E8182179307E0F42D813E818981D0
:103550009A8182179307A8F481E08B8312C0EF81D0
:10356000F885208131818D819E818217930738F003
:103570002D813E8189819A818217930710F481E021
:103580008B83EF81F8858D819E81918380838B81F0
:10359000882359F08091E5069091E60602960E94F4
:1035A000DD0E8D819E810E9446200E946A1B8C83C5
:1035B0008C81882311F40E94E8102A960FB6F894A3
:1035C000DEBF0FBECDBFCF91DF910895DF93CF93C4
:1035D00000D000D00F92CDB7DEB79D838C831982C7
:1035E0008C819D810097D1F00E945E1B2091E9069D
:1035F0003091EA068C819D81820F931F9B838A8381
:103600008091E5069091E60602960E94DD0E8A8181
:103610009B810E9446200E946A1B8983898188239E
:1036200011F40E94E8100F900F900F900F900F90E0
:10363000CF91DF910895AF92BF92CF92DF92EF9238
:10364000FF920F93DF93CF930F92CDB7DEB787E44E
:103650009FE128E730E0B90145E550E020E030E0A7
:1036600000E0EE24FF24CC24DD24AA24BB240E9405
:103670002C1989838981813051F4F89481E08093F9
:10368000EC061092EA061092E9060E94AC100F9028
:10369000CF91DF910F91FF90EF90DF90CF90BF908F
:1036A000AF900895DF93CF93CDB7DEB7F894109223
:1036B000EC060E94E110CF91DF910895DF93CF9344
:1036C000CDB7DEB78091F1068F5F8093F106CF9181
:1036D000DF910895DF93CF9300D00F92CDB7DEB77F
:1036E00019820FB6F8940F928091F1068150809361
:1036F000F1068091F106882309F06DC08091E806FB
:10370000882309F468C045C0E0913107F091320781
:10371000868197819B838A838A819B810C960E94F4
:10372000DD0E8A819B8102960E94DD0EEA81FB817B
:1037300096898091EB06891728F4EA81FB818689B6
:103740008093EB06EA81FB818689282F30E0C9014E
:10375000880F991F880F991F880F991F820F931F39
:10376000AC014E50594F8A819B819C012E5F3F4F87
:10377000CA01B9010E942D0EEA81FB819689E09170
:10378000E506F091E6068689981718F081E08093A7
:10379000EE0680912C07882309F0B6CF8091ED06C4
:1037A000882389F00CC00E94291C882319F081E02D
:1037B0008093EE068091ED0681508093ED06809116
:1037C000ED06882381F78091EE06813021F481E0B7
:1037D00089830E94E8100F900FBE89810F900F908F
:1037E0000F90CF91DF910895DF93CF9300D0CDB7A5
:1037F000DEB70FB6F8940F928091E9069091EA0631
:103800009A8389830F900FBE89819A810F900F90C0
:10381000CF91DF910895DF93CF9300D00F92CDB772
:10382000DEB719828091E9069091EA069B838A832C
:103830008A819B810F900F900F90CF91DF91089517
:10384000DF93CF93CDB7DEB78091E806CF91DF91BC
:103850000895DF93CF93CDB7DEB729970FB6F894CD
:10386000DEBF0FBECDBF1D828091F106882309F017
:10387000C2C08091E9069091EA0601969093EA060B
:103880008093E9068091E9069091EA069C838B83F8
:103890008B819C810097D9F480912807909129070A
:1038A0009A83898380912A0790912B079093290707
:1038B0008093280789819A8190932B0780932A0708
:1038C0008091EF068F5F8093EF060E94E9202091A0
:1038D000C3003091C4008B819C818217930708F448
:1038E00071C0E0912807F09129078081882339F47D
:1038F0008FEF9FEF9093C4008093C30063C0E0916B
:103900002807F09129070580F681E02D86819781AF
:1039100099878887E885F985828193819F838E8343
:103920002B813C818E819F812817390738F48E8145
:103930009F819093C4008093C30044C0888599857B
:1039400002960E94DD0EE885F985848995890097A5
:1039500029F0888599850C960E94DD0EE885F98509
:1039600096898091EB06891728F4E885F985868980
:103970008093EB06E885F9858689282F30E0C90118
:10398000880F991F880F991F880F991F820F931F07
:10399000AC014E50594F888599859C012E5F3F4F51
:1039A000CA01B9010E942D0EE885F9859689E0913A
:1039B000E506F091E6068689981708F492CF81E033
:1039C0008D838FCFE091E506F091E6068689282F5A
:1039D00030E0C901880F991F880F991F880F991F20
:1039E000820F931FFC01EE50F94F8081823040F02E
:1039F00081E08D8305C08091ED068F5F8093ED0699
:103A00008091EE06882311F081E08D838D812996C7
:103A10000FB6F894DEBF0FBECDBFCF91DF910895F2
:103A2000DF93CF9300D0CDB7DEB78091F106882326
:103A300021F081E08093EE0657C01092EE0605C09B
:103A40008091EB0681508093EB068091EB06282F46
:103A500030E0C901880F991F880F991F880F991F9F
:103A6000820F931FFC01EE50F94F8081882341F3B0
:103A70008091EB06282F30E0C901880F991F880F2D
:103A8000991F880F991F820F931F8E50994F9A8309
:103A90008983E981FA810180F281E02D828193811D
:103AA000E981FA8192838183E981FA8121813281DE
:103AB00089819A8103962817390759F4E981FA8197
:103AC0000180F281E02D82819381E981FA819283E4
:103AD0008183E981FA810180F281E02D86819781DD
:103AE0009093E6068093E5060F900F90CF91DF91BB
:103AF0000895DF93CF9300D000D000D0CDB7DEB7CC
:103B00009C838B837E836D838091E5069091E6068E
:103B10009C01245F3F4F8B819C81B9010E94710EF3
:103B20008091E5069091E60602960E94DD0E2091B6
:103B3000E9063091EA068D819E81820F931F9A8358
:103B4000898389819A810E94462026960FB6F8942F
:103B5000DEBF0FBECDBFCF91DF910895DF93CF932E
:103B6000CDB7DEB728970FB6F894DEBF0FBECDBF36
:103B70009C838B837E836D8358874F83E091E5061A
:103B8000F091E6068D819E8190689587848780916B
:103B9000E5069091E6069C01245F3F4F8B819C8156
:103BA000B9010E942D0E8091E5069091E6060296DD
:103BB0000E94DD0E2091E9063091EA068F819885FA
:103BC000820F931F9A83898389819A810E9446205C
:103BD00028960FB6F894DEBF0FBECDBFCF91DF9110
:103BE0000895DF93CF9300D000D00F92CDB7DEB70A
:103BF0009D838C83EC81FD810580F681E02D86819B
:103C000097819B838A838A819B810C960E94DD0E1B
:103C10008091F106882361F58A819B8102960E943A
:103C2000DD0EEA81FB8196898091EB06891728F4E5
:103C3000EA81FB8186898093EB06EA81FB81868994
:103C4000282F30E0C901880F991F880F991F880F0E
:103C5000991F820F931FAC014E50594F8A819B814F
:103C60009C012E5F3F4FCA01B9010E942D0E0AC070
:103C70008A819B819C01245F3F4F8CE297E0B901D0
:103C80000E942D0EEA81FB819689E091E506F09174
:103C9000E6068689891730F481E0898381E0809384
:103CA000EE0601C0198289810F900F900F900F903E
:103CB0000F90CF91DF910895DF93CF93CDB7DEB70B
:103CC00027970FB6F894DEBF0FBECDBF9D838C83C0
:103CD0007F836E838E819F819068EC81FD819183CB
:103CE0008083EC81FD81868197819B838A838C818F
:103CF0009D810E94DD0E8A819B8102960E94DD0ECD
:103D0000EA81FB8196898091EB06891728F4EA8184
:103D1000FB8186898093EB06EA81FB818689282FC7
:103D200030E0C901880F991F880F991F880F991FCC
:103D3000820F931FAC014E50594F8A819B819C0189
:103D40002E5F3F4FCA01B9010E942D0EEA81FB810F
:103D50009689E091E506F091E6068689891730F4A8
:103D600081E0898381E08093EE0601C01982898118
:103D700027960FB6F894DEBF0FBECDBFCF91DF916F
:103D80000895DF93CF9300D0CDB7DEB79A838983B0
:103D90008091EF06E981FA8180838091E906909114
:103DA000EA06E981FA81928381830F900F90CF9187
:103DB000DF910895DF93CF93CDB7DEB727970FB686
:103DC000F894DEBF0FBECDBF9D838C837F836E834F
:103DD0000FB6F8940F928091E9069091EA069A83C3
:103DE0008983EC81FD8190818091EF06981761F0C5
:103DF000EC81FD812181328189819A81821793072B
:103E000018F081E08B832DC0EC81FD81218132810E
:103E100089819A81AC01421B530B9A01EE81FF818B
:103E20008081918128173907D0F4EE81FF8140818C
:103E30005181EC81FD812181328189819A81B90191
:103E4000681B790BCB01840F951FEE81FF81918355
:103E500080838C819D810E94C11E1B8202C081E0F3
:103E60008B830F900FBE8B8127960FB6F894DEBF21
:103E70000FBECDBFCF91DF910895DF93CF93CDB724
:103E8000DEB781E08093EE06CF91DF910895DF9356
:103E9000CF9300D0CDB7DEB79A8389830E940720E5
:103EA0008091F2068230D0F30E94E810F7CF0F9392
:103EB0001F93DF93CF93CDB7DEB72A970FB6F89451
:103EC000DEBF0FBECDBF9B838A837D836C834E8311
:103ED00038872F831A870987198221C08981482F43
:103EE00050E08981282F30E08C819D81FC01E20F18
:103EF000F31F20818A819B81840F951FFC01799695
:103F000020838981282F30E08C819D81FC01E20F84
:103F1000F31F8081882331F089818F5F89838981B4
:103F20008431E0F2EA81FB8114A68E81843010F0A6
:103F300083E08E83EA81FB818E81868B8A819B81DF
:103F400002960E941D0E8A819B810C960E941D0E76
:103F5000EA81FB818A819B81918780878E81282FCE
:103F600030E084E090E0821B930BEA81FB8195872F
:103F70008487EA81FB818A819B81938B828B2A963D
:103F80000FB6F894DEBF0FBECDBFCF91DF911F916A
:103F90000F910895DF93CF930F92CDB7DEB71982BB
:103FA00013C08981282F30E0C901880F991F880F1D
:103FB000991F880F991F820F931F8E50994F0E944F
:103FC000F30D89818F5F89838981843050F386E185
:103FD00097E00E94F30D8FE197E00E94F30D8CE2D1
:103FE00097E00E94F30D85E397E00E94F30D86E1D0
:103FF00097E090932907809328078FE197E09093AB
:104000002B0780932A070F90CF91DF910895DF93BC
:10401000CF9300D00F92CDB7DEB72EC00E945E1BAB
:10402000809135071B82882311F481E08B830E94E5
:104030006A1B8B81882301F50FB6F8940F92E091EB
:104040003A07F0913B07868197819A83898389811A
:104050009A8102960E94DD0E8091E806815080933D
:10406000E8068091E70681508093E7060F900FBE27
:1040700089819A810E94D3208091E706882371F676
:104080000F900F900F90CF91DF910895DF93CF9312
:1040900000D0CDB7DEB79A838983E091E506F09131
:1040A000E60689819A81938382832091E906309183
:1040B000EA0689819A818217930770F480912A0712
:1040C00090912B072091E5063091E6062E5F3F4F39
:1040D000B9010E94710E1EC0409128075091290716
:1040E0008091E5069091E6069C012E5F3F4FCA0144
:1040F000B9010E94710E2091C3003091C4008981E2
:104100009A818217930730F489819A819093C40031
:104110008093C3000F900F90CF91DF910895DF93AC
:10412000CF93CDB7DEB728970FB6F894DEBF0FBE9A
:10413000CDBF9C838B837E836D838DE290E00E9454
:10414000A50C9A83898389819A81009709F18D81D1
:104150009E81009739F48B819C810E94A50C9887E1
:104160008F8304C08D819E8198878F83E981FA8136
:104170008F819885908F878BE981FA818789908DCF
:10418000009731F489819A810E94FB0C1A8219826E
:1041900089819A8128960FB6F894DEBF0FBECDBFF5
:1041A000CF91DF910895DF93CF9300D0CDB7DEB7E5
:1041B0009A838983E981FA818789908D0E94FB0C1B
:1041C00089819A810E94FB0C0F900F90CF91DF9113
:1041D0000895DF93CF9300D0CDB7DEB7E0912807E5
:1041E000F09129078081882339F48FEF9FEF909316
:1041F000C4008093C30013C0E0912807F091290701
:104200000580F681E02D868197819A838983E981F3
:10421000FA81828193819093C4008093C3000F90B0
:104220000F90CF91DF910895DF93CF9300D0CDB75A
:10423000DEB7E091E506F091E606848595859A83E0
:104240008983A091E506B091E606E091E506F0913C
:10425000E6068689282F30E084E090E0821B930BED
:104260001D969C938E931C9789819A810F900F9035
:10427000CF91DF910895DF93CF9300D000D0CDB7D9
:10428000DEB79A8389837C836B8389819A810097C7
:1042900031F089819A8190933F0780933E078B810B
:1042A0009C81009731F08B819C8190934107809392
:1042B00040070F900F900F900F90CF91DF910895CE
:1042C0001F920F920FB60F9211242F933F934F938B
:1042D0005F936F937F938F939F93AF93BF93EF936E
:1042E000FF93DF93CF93CDB7DEB7A0913E07B09198
:1042F0003F07E4E2F0E0808191818D939C93E0910F
:104300004007F09141070995CF91DF91FF91EF911F
:10431000BF91AF919F918F917F916F915F914F91DD
:104320003F912F910F900FBE0F901F901895DF9324
:10433000CF93CDB7DEB7E7E2F0E080818F7D808359
:10434000E7E2F0E080818F7380648083E6E2F0E052
:104350008081887F8083E6E2F0E0808180688083CE
:10436000E6E2F0E0808188608083CF91DF9108955C
:10437000DF93CF93CDB7DEB7E6E2F0E080818064D3
:104380008083CF91DF910895DF93CF9300D000D049
:10439000CDB7DEB79C838B838B819C818830910560
:1043A00030F4E7E2F0E08081807E81608083E6E2A5
:1043B000F0E0808180648083E6E2F0E080818071BB
:1043C0008823D1F3E4E2F0E0808191819A838983AC
:1043D000E6E2F0E080818061808389819A810F909C
:1043E0000F900F900F90CF91DF910895DF93CF93AF
:1043F000CDB7DEB7E6E2F0E0808180628083CF91C6
:10440000DF9108958F929F92AF92BF92CF92DF92E9
:10441000EF92FF920F931F93DF93CF93CDB7DEB749
:1044200066970FB6F894DEBF0FBECDBF6D837E8357
:104430008F83988729873A874B875C87ED86FE862E
:104440000F87188BA98ABA8ACB8ADC8A9E8A8D8AC2
:104450008D899E897C0100E010E029893A894B8989
:104460005C898D859E85AF85B88959016A01A81A36
:10447000B90ACA0ADB0AD601C5012D813E814F81E6
:104480005885BC01CD010E948130DC01CB01A8011F
:104490009701281B390B4A0B5B0BDA01C901898391
:1044A0009A83AB83BC8329853A854B855C858D8156
:1044B0009E81AF81B885281B390B4A0B5B0B898124
:1044C0009A81AB81BC81BC01CD010E94AC30DA0184
:1044D000C90189839A83AB83BC8329813A814B814B
:1044E0005C818D859E85AF85B889820F931FA41F3F
:1044F000B51F89839A83AB83BC8389819A81669631
:104500000FB6F894DEBF0FBECDBFCF91DF911F91E4
:104510000F91FF90EF90DF90CF90BF90AF909F9062
:104520008F900895EF92FF920F931F93DF93CF9395
:10453000CDB7DEB72E970FB6F894DEBF0FBECDBF56
:104540009E838D8378876F835A8749873C872B8723
:104550001E870D872D813E818F8198852817390709
:1045600028F48F8198859E838D830BC02D813E8199
:1045700089859A858217930720F489859A859E8379
:104580008D832D813E818F819885A901481B590B10
:10459000CA017C0100E010E02D853E858B859C855D
:1045A000A901481B590BCA019C0140E050E0C80119
:1045B000B7010E948130DC01CB0189839A83AB83F0
:1045C000BC8329853A858F819885A901481B590BA1
:1045D000CA019C0140E050E089819A81AB81BC8195
:1045E000BC01CD010E94AC30DA01C90189839A83F4
:1045F000AB83BC838B859C859C0140E050E0898126
:104600009A81AB81BC81820F931FA41FB51F898340
:104610009A83AB83BC8389819A812E960FB6F894D6
:10462000DEBF0FBECDBFCF91DF911F910F91FF90E5
:10463000EF900895DF93CF93CDB7DEB727970FB6EE
:10464000F894DEBF0FBECDBF89836A834B838B8115
:10465000813009F06FC08981282F30E03F832E839D
:104660008E819F818130910549F12E813F812230D9
:1046700031052CF48E819F81009761F0D2C02E818C
:104680003F812230310571F18E819F818330910508
:10469000E9F1C7C0AAE3B0E0EAE3F0E08081482F87
:1046A0008A81282F30E081E090E0022E02C0880F3E
:1046B000991F0A94E2F7842B8C93B3C0A7E3B0E070
:1046C000E7E3F0E08081482F8A81282F30E081E005
:1046D00090E0022E02C0880F991F0A94E2F7842B03
:1046E0008C939FC0A4E3B0E0E4E3F0E08081482F26
:1046F0008A81282F30E081E090E0022E02C0880FEE
:10470000991F0A94E2F7842B8C938BC0A1E3B0E04D
:10471000E1E3F0E08081482F8A81282F30E081E0BA
:1047200090E0022E02C0880F991F0A94E2F7842BB2
:104730008C9377C08B81882309F073C08981282FDF
:1047400030E03D832C838C819D818130910559F12E
:104750002C813D81223031052CF48C819D81009784
:1047600069F05FC02C813D812230310589F18C8157
:104770009D818330910509F440C053C0AAE3B0E0A5
:10478000EAE3F0E08081482F8A81282F30E081E041
:1047900090E0022E02C0880F991F0A94E2F78095DC
:1047A00084238C933EC0A7E3B0E0E7E3F0E0808190
:1047B000482F8A81282F30E081E090E0022E02C04D
:1047C000880F991F0A94E2F7809584238C9329C05F
:1047D000A4E3B0E0E4E3F0E08081482F8A81282F51
:1047E00030E081E090E0022E02C0880F991F0A9409
:1047F000E2F7809584238C9314C0A1E3B0E0E1E359
:10480000F0E08081482F8A81282F30E081E090E01D
:10481000022E02C0880F991F0A94E2F78095842324
:104820008C9327960FB6F894DEBF0FBECDBFCF9105
:10483000DF910895DF93CF93CDB7DEB727970FB6FB
:10484000F894DEBF0FBECDBF89836A834B838B8113
:10485000813009F06FC08981282F30E03F832E839B
:104860008E819F818130910549F12E813F812230D7
:1048700031052CF48E819F81009761F0D2C02E818A
:104880003F812230310571F18E819F818330910506
:10489000E9F1C7C0ABE3B0E0EBE3F0E08081482F83
:1048A0008A81282F30E081E090E0022E02C0880F3C
:1048B000991F0A94E2F7842B8C93B3C0A8E3B0E06D
:1048C000E8E3F0E08081482F8A81282F30E081E002
:1048D00090E0022E02C0880F991F0A94E2F7842B01
:1048E0008C939FC0A5E3B0E0E5E3F0E08081482F22
:1048F0008A81282F30E081E090E0022E02C0880FEC
:10490000991F0A94E2F7842B8C938BC0A2E3B0E04A
:10491000E2E3F0E08081482F8A81282F30E081E0B7
:1049200090E0022E02C0880F991F0A94E2F7842BB0
:104930008C9377C08B81882309F073C08981282FDD
:1049400030E03D832C838C819D818130910559F12C
:104950002C813D81223031052CF48C819D81009782
:1049600069F05FC02C813D812230310589F18C8155
:104970009D818330910509F440C053C0ABE3B0E0A2
:10498000EBE3F0E08081482F8A81282F30E081E03E
:1049900090E0022E02C0880F991F0A94E2F78095DA
:1049A00084238C933EC0A8E3B0E0E8E3F0E080818C
:1049B000482F8A81282F30E081E090E0022E02C04B
:1049C000880F991F0A94E2F7809584238C9329C05D
:1049D000A5E3B0E0E5E3F0E08081482F8A81282F4D
:1049E00030E081E090E0022E02C0880F991F0A9407
:1049F000E2F7809584238C9314C0A2E3B0E0E2E355
:104A0000F0E08081482F8A81282F30E081E090E01B
:104A1000022E02C0880F991F0A94E2F78095842322
:104A20008C9327960FB6F894DEBF0FBECDBFCF9103
:104A3000DF910895DF93CF9300D000D00F92CDB7D0
:104A4000DEB78A836B8319828A81282F30E03D8309
:104A50002C834C815D814130510541F18C819D81D8
:104A60008230910534F42C813D812115310561F0AE
:104A700052C04C815D814230510551F18C819D8144
:104A800083309105B9F147C0E9E3F0E08081282F38
:104A900030E08B81882F90E0A90102C055954795A1
:104AA0008A95E2F7CA018170898335C0E6E3F0E0B8
:104AB0008081282F30E08B81882F90E0A90102C0EF
:104AC000559547958A95E2F7CA018170898323C07D
:104AD000E3E3F0E08081282F30E08B81882F90E0A5
:104AE000A90102C0559547958A95E2F7CA018170E0
:104AF000898311C0E0E3F0E08081282F30E08B81D2
:104B0000882F90E0A90102C0559547958A95E2F754
:104B1000CA018170898389810F900F900F900F9047
:104B20000F90CF91DF910895DF93CF9300D000D005
:104B300000D0CDB7DEB789836A838A81813099F549
:104B40008981282F30E03E832D838D819E818130A5
:104B50009105D1F02D813E81223031052CF48D81DB
:104B60009E81009761F050C02D813E812230310539
:104B700081F08D819E818330910581F045C0EAE30B
:104B8000F0E08FEF808340C0E7E3F0E08FEF8083B9
:104B90003BC0E4E3F0E08FEF808336C0E1E3F0E078
:104BA0008FEF808331C08A81882371F58981282F16
:104BB00030E03C832B838B819C8181309105C9F04F
:104BC0002B813C81223031052CF48B819C81009714
:104BD00061F01AC02B813C812230310571F08B814C
:104BE0009C818330910569F00FC0EAE3F0E0108208
:104BF0000BC0E7E3F0E0108207C0E4E3F0E01082CE
:104C000003C0E1E3F0E0108226960FB6F894DEBF11
:104C10000FBECDBFCF91DF910895DF93CF9300D02A
:104C200000D000D0CDB7DEB789836A838A81813016
:104C300099F58981282F30E03E832D838D819E81D7
:104C400081309105D1F02D813E81223031052CF447
:104C50008D819E81009761F050C02D813E81223070
:104C6000310581F08D819E818330910581F045C0B1
:104C7000EBE3F0E08FEF808340C0E8E3F0E08FEFFC
:104C800080833BC0E5E3F0E08FEF808336C0E2E352
:104C9000F0E08FEF808331C08A81882371F58981AC
:104CA000282F30E03C832B838B819C8181309105C0
:104CB000C9F02B813C81223031052CF48B819C8101
:104CC000009761F01AC02B813C812230310571F0D0
:104CD0008B819C818330910569F00FC0EBE3F0E09C
:104CE00010820BC0E8E3F0E0108207C0E5E3F0E0DB
:104CF000108203C0E2E3F0E0108226960FB6F8942B
:104D0000DEBF0FBECDBFCF91DF910895DF93CF936C
:104D100000D000D0CDB7DEB789836A838981282F80
:104D200030E03C832B838B819C818130910549F15C
:104D30002B813C81223031052CF48B819C810097A2
:104D400061F05AC02B813C812230310571F18B8199
:104D50009C8183309105E9F14FC0ABE3B0E0EBE318
:104D6000F0E08081482F8A81282F30E081E090E0B8
:104D7000022E02C0880F991F0A94E2F784278C93B1
:104D80003BC0A8E3B0E0E8E3F0E08081482F8A81EF
:104D9000282F30E081E090E0022E02C0880F991F9A
:104DA0000A94E2F784278C9327C0A5E3B0E0E5E3FB
:104DB000F0E08081482F8A81282F30E081E090E068
:104DC000022E02C0880F991F0A94E2F784278C9361
:104DD00013C0A2E3B0E0E2E3F0E08081482F8A81D3
:104DE000282F30E081E090E0022E02C0880F991F4A
:104DF0000A94E2F784278C930F900F900F900F90F6
:104E0000CF91DF910895DF93CF93CDB7DEB72A9787
:104E10000FB6F894DEBF0FBECDBF89836A83898148
:104E2000282F30E03A87298789859A858130910536
:104E300009F43FC029853A852230310509F46DC057
:104E400089859A85009709F08DC0ABE5B0E0EBE568
:104E5000F0E0808180648C938A81282F30E038874D
:104E60002F838F819885009731F02F8138852130ED
:104E7000310581F077C0A5E5B0E0E5E5F0E080819F
:104E80008E7F8C93A5E5B0E0E5E5F0E0808182605F
:104E90008C9368C0A5E5B0E0E5E5F0E08081816035
:104EA0008C93A5E5B0E0E5E5F0E0808182608C932D
:104EB00059C0ABE5B0E0EBE5F0E0808180688C9311
:104EC0008A81282F30E03E832D838D819E8100973B
:104ED00031F02D813E812130310581F043C0A5E5BF
:104EE000B0E0E5E5F0E080818B7F8C93A5E5B0E054
:104EF000E5E5F0E0808188608C9334C0A5E5B0E002
:104F0000E5E5F0E0808184608C93A5E5B0E0E5E51F
:104F1000F0E0808188608C9325C0ABE5B0E0EBE5E4
:104F2000F0E0808180628C938A81282F30E03C837E
:104F30002B838B819C81009731F02B813C81213028
:104F4000310549F00FC0A4E5B0E0E4E5F0E0808170
:104F50008F7B8C9307C0A4E5B0E0E4E5F0E08081AE
:104F600080648C932A960FB6F894DEBF0FBECDBF37
:104F7000CF91DF910895DF93CF9300D0CDB7DEB707
:104F80009A83898389819A81909345078093440706
:104F90000F900F90CF91DF910895DF93CF9300D0C2
:104FA000CDB7DEB79A83898389819A819093470729
:104FB000809346070F900F90CF91DF910895DF9374
:104FC000CF9300D0CDB7DEB79A83898389819A8148
:104FD00090934907809348070F900F90CF91DF91EE
:104FE00008951F920F920FB60F9211242F933F93A3
:104FF0004F935F936F937F938F939F93AF93BF93E1
:10500000EF93FF93DF93CF93CDB7DEB7E0914407E3
:10501000F09145070995CF91DF91FF91EF91BF91F5
:10502000AF919F918F917F916F915F914F913F9140
:105030002F910F900FBE0F901F9018951F920F92F7
:105040000FB60F9211242F933F934F935F936F935B
:105050007F938F939F93AF93BF93EF93FF93DF93D0
:10506000CF93CDB7DEB7E0914607F091470709959A
:10507000CF91DF91FF91EF91BF91AF919F918F9170
:105080007F916F915F914F913F912F910F900FBE44
:105090000F901F9018951F920F920FB60F92112428
:1050A0002F933F934F935F936F937F938F939F9330
:1050B000AF93BF93EF93FF93DF93CF93CDB7DEB75B
:1050C000E0914807F09149070995CF91DF91FF9151
:1050D000EF91BF91AF919F918F917F916F915F9170
:1050E0004F913F912F910F900FBE0F901F901895E9
:1050F000DF93CF93CDB7DEB7AFE5B0E0EFE5F0E0FB
:10510000808180688C93CF91DF910895DF93CF9356
:10511000CDB7DEB7AFE5B0E0EFE5F0E080818F77A7
:105120008C93CF91DF910895DF93CF93CDB7DEB706
:105130002E970FB6F894DEBF0FBECDBF80E063E0C0
:1051400041E00E941A2380E062E041E00E941A23BD
:1051500081E060E041E00E941A2381E061E041E0EB
:105160000E941A2381E062E041E00E941A2381E05C
:1051700064E041E00E941A2380E090E0A8ECB2E4F1
:105180008B879C87AD87BE876B857C858D859E854B
:1051900020E030E04AEF54E40E941F02DC01CB0122
:1051A0008F839887A987BA876F81788589859A8543
:1051B00020E030E040E85FE30E94790388232CF48C
:1051C00081E090E09E838D833FC06F8178858985E3
:1051D0009A8520E03FEF4FE757E40E941903181625
:1051E0004CF56B857C858D859E8520E030E040E226
:1051F00051E40E941F02DC01CB01BC01CD010E94E1
:105200004900DC01CB019E838D830FC088EC90E0C8
:105210009C838B838B819C810197F1F79C838B838B
:105220008D819E8101979E838D838D819E810097C4
:1052300069F714C06F81788589859A850E94490035
:10524000DC01CB019E838D838D819E819A8389832E
:1052500089819A810197F1F79A83898383E390E0AA
:105260000E94532982E390E00E94532988E290E053
:105270000E9453298CE090E00E94532982E090E044
:105280000E94532981E090E00E94532986E090E03B
:105290000E9453292E960FB6F894DEBF0FBECDBFE5
:1052A000CF91DF910895DF93CF93CDB7DEB7AB9762
:1052B0000FB6F894DEBF0FBECDBF8BA780E062E0D3
:1052C00040E00E941A2480E063E040E00E941A243B
:1052D0008BA582958F70982F917081E060E0492FA7
:1052E0000E941A248BA5829586958770982F9170BD
:1052F00081E061E0492F0E941A248BA58295869552
:1053000086958370982F917081E062E0492F0E940A
:105310001A248BA5982F991F9927991F81E064E083
:10532000492F0E941A2480E062E041E00E941A2482
:1053300080E090E0A0E0B0E48FA398A7A9A7BAA767
:105340006FA178A589A59AA520E030E04AEF54E442
:105350000E941F02DC01CB018BA39CA3ADA3BEA3C3
:105360006BA17CA18DA19EA120E030E040E85FE32D
:105370000E94790388232CF481E090E09AA389A30A
:105380003FC06BA17CA18DA19EA120E03FEF4FE724
:1053900057E40E94190318164CF56FA178A589A54A
:1053A0009AA520E030E040E251E40E941F02DC01B7
:1053B000CB01BC01CD010E944900DC01CB019AA3C5
:1053C00089A30FC088EC90E098A38F8F8F8D98A150
:1053D0000197F1F798A38F8F89A19AA101979AA3BA
:1053E00089A389A19AA1009769F714C06BA17CA138
:1053F0008DA19EA10E944900DC01CB019AA389A343
:1054000089A19AA19E8F8D8F8D8D9E8D0197F1F729
:105410009E8F8D8F80E062E040E00E941A248BA571
:10542000982F917081E060E0492F0E941A248BA58B
:105430008695982F917081E061E0492F0E941A248F
:105440008BA586958695982F917081E062E0492F13
:105450000E941A248BA5869586958695982F917023
:1054600081E064E0492F0E941A2480E062E041E07C
:105470000E941A2480E090E0A0E0B0E4898F9A8F27
:10548000AB8FBC8F698D7A8D8B8D9C8D20E030E049
:105490004AEF54E40E941F02DC01CB018D8B9E8BEE
:1054A000AF8BB88F6D897E898F89988D20E030E031
:1054B00040E85FE30E94790388232CF481E090E0C8
:1054C0009C8B8B8B3FC06D897E898F89988D20E066
:1054D0003FEF4FE757E40E94190318164CF5698D0A
:1054E0007A8D8B8D9C8D20E030E040E251E40E946B
:1054F0001F02DC01CB01BC01CD010E944900DC018F
:10550000CB019C8B8B8B0FC088EC90E09A8B898BA6
:1055100089899A890197F1F79A8B898B8B899C8964
:1055200001979C8B8B8B8B899C89009769F714C0A2
:105530006D897E898F89988D0E944900DC01CB019D
:105540009C8B8B8B8B899C89988B8F878F85988977
:105550000197F1F7988B8F8780E062E040E00E942E
:105560001A2480E090E0A0EAB0E48B879C87AD87A6
:10557000BE876B857C858D859E8520E030E04AEF77
:1055800054E40E941F02DC01CB018F839887A98716
:10559000BA876F81788589859A8520E030E040E878
:1055A0005FE30E94790388232CF481E090E09E83DE
:1055B0008D833FC06F81788589859A8520E03FEF94
:1055C0004FE757E40E94190318164CF56B857C854C
:1055D0008D859E8520E030E040E251E40E941F026C
:1055E000DC01CB01BC01CD010E944900DC01CB01F3
:1055F0009E838D830FC088EC90E09C838B838B818E
:105600009C810197F1F79C838B838D819E8101970B
:105610009E838D838D819E81009769F714C06F8171
:10562000788589859A850E944900DC01CB019E839B
:105630008D838D819E819A83898389819A81019747
:10564000F1F79A838983AB960FB6F894DEBF0FBE4D
:10565000CDBFCF91DF910895DF93CF93CDB7DEB764
:10566000AB970FB6F894DEBF0FBECDBF8BA780E01F
:1056700062E040E00E941A2480E063E041E00E9482
:105680001A248BA582958F70982F917081E060E02D
:10569000492F0E941A248BA5829586958770982F92
:1056A000917081E061E0492F0E941A248BA58295B8
:1056B000869586958370982F917081E062E0492FDE
:1056C0000E941A248BA5982F991F9927991F81E072
:1056D00064E0492F0E941A2480E062E041E00E94C9
:1056E0001A2480E090E0A0E0B0E48FA398A7A9A7D7
:1056F000BAA76FA178A589A59AA520E030E04AEF66
:1057000054E40E941F02DC01CB018BA39CA3ADA338
:10571000BEA36BA17CA18DA19EA120E030E040E85A
:105720005FE30E94790388232CF481E090E09AA340
:1057300089A33FC06BA17CA18DA19EA120E03FEF7A
:105740004FE757E40E94190318164CF56FA178A58E
:1057500089A59AA520E030E040E251E40E941F02B2
:10576000DC01CB01BC01CD010E944900DC01CB0171
:105770009AA389A30FC088EC90E098A38F8F8F8D98
:1057800098A10197F1F798A38F8F89A19AA101970A
:105790009AA389A389A19AA1009769F714C06BA164
:1057A0007CA18DA19EA10E944900DC01CB019AA39E
:1057B00089A389A19AA19E8F8D8F8D8D9E8D019732
:1057C000F1F79E8F8D8F80E062E040E00E941A2406
:1057D0008BA5982F917081E060E0492F0E941A24D8
:1057E0008BA58695982F917081E061E0492F0E94EA
:1057F0001A248BA586958695982F917081E062E09A
:10580000492F0E941A248BA5869586958695982FF8
:10581000917081E064E0492F0E941A2480E062E0E8
:1058200041E00E941A2480E090E0A0E0B0E4898F7B
:105830009A8FAB8FBC8F698D7A8D8B8D9C8D20E07C
:1058400030E04AEF54E40E941F02DC01CB018D8B53
:105850009E8BAF8BB88F6D897E898F89988D20E064
:1058600030E040E85FE30E94790388232CF481E074
:1058700090E09C8B8B8B3FC06D897E898F89988D42
:1058800020E03FEF4FE757E40E94190318164CF54C
:10589000698D7A8D8B8D9C8D20E030E040E251E463
:1058A0000E941F02DC01CB01BC01CD010E94490016
:1058B000DC01CB019C8B8B8B0FC088EC90E09A8B2A
:1058C000898B89899A890197F1F79A8B898B8B89C2
:1058D0009C8901979C8B8B8B8B899C89009769F79E
:1058E00014C06D897E898F89988D0E944900DC01E2
:1058F000CB019C8B8B8B8B899C89988B8F878F8519
:1059000098890197F1F7988B8F8780E062E040E0FB
:105910000E941A2480E090E0A0EAB0E48B879C8784
:10592000AD87BE876B857C858D859E8520E030E0C8
:105930004AEF54E40E941F02DC01CB018F83988759
:10594000A987BA876F81788589859A8520E030E0BC
:1059500040E85FE30E94790388232CF481E090E023
:105960009E838D833FC06F81788589859A8520E0ED
:105970003FEF4FE757E40E94190318164CF56B856B
:105980007C858D859E8520E030E040E251E40E94D8
:105990001F02DC01CB01BC01CD010E944900DC01EA
:1059A000CB019E838D830FC088EC90E09C838B831A
:1059B0008B819C810197F1F79C838B838D819E81E4
:1059C00001979E838D838D819E81009769F714C016
:1059D0006F81788589859A850E944900DC01CB0119
:1059E0009E838D838D819E819A83898389819A810B
:1059F0000197F1F79A838983AB960FB6F894DEBFCF
:105A00000FBECDBFCF91DF910895DF93CF93CDB778
:105A1000DEB781E00E945329CF91DF910895DF9393
:105A2000CF9300D0CDB7DEB79A8389830AC0E981CE
:105A3000FA8180810E942C2B89819A8101969A8318
:105A40008983E981FA818081882389F70F900F90FB
:105A5000CF91DF910895DF93CF9300D000D000D095
:105A6000CDB7DEB78D836E8380E8898380EC8A832F
:105A700084E98B8384ED8C838D81282F30E0CE01E7
:105A80000196FC01E20FF31F90818E81890F0E9425
:105A9000532926960FB6F894DEBF0FBECDBFCF9127
:105AA000DF910895DF93CF93CDB7DEB760970FB640
:105AB000F894DEBF0FBECDBF6D877E878F87988B32
:105AC0008D859E85AF85B8890097A105B10521F424
:105AD00080E30E942C2B65C08D859E85AF85B8899B
